{
  "_format": "hh-sol-artifact-1",
  "contractName": "InstaDapp",
  "sourceName": "contracts/Instadapp.sol",
  "abi": [
    {
      "inputs": [
        {
          "internalType": "string",
          "name": "_cid",
          "type": "string"
        },
        {
          "internalType": "string",
          "name": "_desc",
          "type": "string"
        }
      ],
      "name": "addImages",
      "outputs": [],
      "stateMutability": "nonpayable",
      "type": "function"
    },
    {
      "inputs": [],
      "name": "count",
      "outputs": [
        {
          "internalType": "uint256",
          "name": "",
          "type": "uint256"
        }
      ],
      "stateMutability": "view",
      "type": "function"
    },
    {
      "inputs": [
        {
          "internalType": "uint256",
          "name": "_id",
          "type": "uint256"
        }
      ],
      "name": "giveTip",
      "outputs": [],
      "stateMutability": "payable",
      "type": "function"
    },
    {
      "inputs": [
        {
          "internalType": "uint256",
          "name": "",
          "type": "uint256"
        }
      ],
      "name": "images",
      "outputs": [
        {
          "internalType": "uint256",
          "name": "id",
          "type": "uint256"
        },
        {
          "internalType": "string",
          "name": "cid",
          "type": "string"
        },
        {
          "internalType": "string",
          "name": "desc",
          "type": "string"
        },
        {
          "internalType": "uint256",
          "name": "tip",
          "type": "uint256"
        },
        {
          "internalType": "address",
          "name": "author",
          "type": "address"
        }
      ],
      "stateMutability": "view",
      "type": "function"
    }
  ],
  "bytecode": "0x6080604052600060015534801561001557600080fd5b50610714806100256000396000f3fe60806040526004361061003f5760003560e01c8063036a30821461004457806306661abd14610066578063848564821461008f578063e534c935146100c0575b600080fd5b34801561005057600080fd5b5061006461005f36600461054f565b6100d3565b005b34801561007257600080fd5b5061007c60015481565b6040519081526020015b60405180910390f35b34801561009b57600080fd5b506100af6100aa3660046105b3565b610218565b604051610086959493929190610619565b6100646100ce3660046105b3565b610361565b600082511161011a5760405162461bcd60e51b815260206004820152600e60248201526d09cdee840ecc2d8d2c840d0c2e6d60931b60448201526064015b60405180910390fd5b60008151116101635760405162461bcd60e51b81526020600482015260156024820152742737ba103b30b634b2103232b9b1b934b83a34b7b760591b6044820152606401610111565b6001805461017091610667565b60018181556040805160a0810182528381526020808201878152828401879052600060608401819052336080850152958652858252929094208151815591518051919492936101c59390850192910190610429565b50604082015180516101e1916002840191602090910190610429565b5060608201516003820155608090910151600490910180546001600160a01b0319166001600160a01b039092169190911790555050565b6000602081905290815260409020805460018201805491929161023a9061068d565b80601f01602080910402602001604051908101604052809291908181526020018280546102669061068d565b80156102b35780601f10610288576101008083540402835291602001916102b3565b820191906000526020600020905b81548152906001019060200180831161029657829003601f168201915b5050505050908060020180546102c89061068d565b80601f01602080910402602001604051908101604052809291908181526020018280546102f49061068d565b80156103415780601f1061031657610100808354040283529160200191610341565b820191906000526020600020905b81548152906001019060200180831161032457829003601f168201915b5050505060038301546004909301549192916001600160a01b0316905085565b60008111801561037357506001548111155b6103ae5760405162461bcd60e51b815260206004820152600c60248201526b139bdd081d985b1a59081a5960a21b6044820152606401610111565b6000818152602081905260408082206004015490516001600160a01b03909116913480156108fc02929091818181858888f193505050501580156103f6573d6000803e3d6000fd5b50600081815260208190526040902060030154610414903490610667565b60009182526020829052604090912060030155565b8280546104359061068d565b90600052602060002090601f016020900481019282610457576000855561049d565b82601f1061047057805160ff191683800117855561049d565b8280016001018555821561049d579182015b8281111561049d578251825591602001919060010190610482565b506104a99291506104ad565b5090565b5b808211156104a957600081556001016104ae565b600082601f8301126104d357600080fd5b813567ffffffffffffffff808211156104ee576104ee6106c8565b604051601f8301601f19908116603f01168101908282118183101715610516576105166106c8565b8160405283815286602085880101111561052f57600080fd5b836020870160208301376000602085830101528094505050505092915050565b6000806040838503121561056257600080fd5b823567ffffffffffffffff8082111561057a57600080fd5b610586868387016104c2565b9350602085013591508082111561059c57600080fd5b506105a9858286016104c2565b9150509250929050565b6000602082840312156105c557600080fd5b5035919050565b6000815180845260005b818110156105f2576020818501810151868301820152016105d6565b81811115610604576000602083870101525b50601f01601f19169290920160200192915050565b85815260a06020820152600061063260a08301876105cc565b828103604084015261064481876105cc565b606084019590955250506001600160a01b03919091166080909101529392505050565b6000821982111561068857634e487b7160e01b600052601160045260246000fd5b500190565b600181811c908216806106a157607f821691505b602082108114156106c257634e487b7160e01b600052602260045260246000fd5b50919050565b634e487b7160e01b600052604160045260246000fdfea2646970667358221220c22098ce0c8e7d7d4da755e43a1e9e22048c6e0062a55beaf9ac1164ca11669e64736f6c63430008070033",
  "linkReferences": {},
  "deployedLinkReferences": {}
}