{
  "_format": "hh-sol-artifact-1",
  "contractName": "InstaDapp",
  "sourceName": "contracts/Instadapp.sol",
  "abi": [
    {
      "inputs": [
        {
          "internalType": "string",
          "name": "_cid",
          "type": "string"
        },
        {
          "internalType": "string",
          "name": "_desc",
          "type": "string"
        }
      ],
      "name": "addImages",
      "outputs": [],
      "stateMutability": "nonpayable",
      "type": "function"
    },
    {
      "inputs": [],
      "name": "count",
      "outputs": [
        {
          "internalType": "uint256",
          "name": "",
          "type": "uint256"
        }
      ],
      "stateMutability": "view",
      "type": "function"
    },
    {
      "inputs": [
        {
          "internalType": "uint256",
          "name": "",
          "type": "uint256"
        }
      ],
      "name": "images",
      "outputs": [
        {
          "internalType": "uint256",
          "name": "id",
          "type": "uint256"
        },
        {
          "internalType": "string",
          "name": "cid",
          "type": "string"
        },
        {
          "internalType": "string",
          "name": "desc",
          "type": "string"
        },
        {
          "internalType": "uint256",
          "name": "tip",
          "type": "uint256"
        },
        {
          "internalType": "address",
          "name": "author",
          "type": "address"
        }
      ],
      "stateMutability": "view",
      "type": "function"
    }
  ],
  "bytecode": "0x6080604052600060015534801561001557600080fd5b50610614806100256000396000f3fe608060405234801561001057600080fd5b50600436106100415760003560e01c8063036a30821461004657806306661abd1461005b5780638485648214610077575b600080fd5b61005961005436600461044f565b61009b565b005b61006460015481565b6040519081526020015b60405180910390f35b61008a6100853660046104b3565b6101e0565b60405161006e959493929190610519565b60008251116100e25760405162461bcd60e51b815260206004820152600e60248201526d09cdee840ecc2d8d2c840d0c2e6d60931b60448201526064015b60405180910390fd5b600081511161012b5760405162461bcd60e51b81526020600482015260156024820152742737ba103b30b634b2103232b9b1b934b83a34b7b760591b60448201526064016100d9565b6001805461013891610567565b60018181556040805160a08101825283815260208082018781528284018790526000606084018190523360808501529586528582529290942081518155915180519194929361018d9390850192910190610329565b50604082015180516101a9916002840191602090910190610329565b5060608201516003820155608090910151600490910180546001600160a01b0319166001600160a01b039092169190911790555050565b600060208190529081526040902080546001820180549192916102029061058d565b80601f016020809104026020016040519081016040528092919081815260200182805461022e9061058d565b801561027b5780601f106102505761010080835404028352916020019161027b565b820191906000526020600020905b81548152906001019060200180831161025e57829003601f168201915b5050505050908060020180546102909061058d565b80601f01602080910402602001604051908101604052809291908181526020018280546102bc9061058d565b80156103095780601f106102de57610100808354040283529160200191610309565b820191906000526020600020905b8154815290600101906020018083116102ec57829003601f168201915b5050505060038301546004909301549192916001600160a01b0316905085565b8280546103359061058d565b90600052602060002090601f016020900481019282610357576000855561039d565b82601f1061037057805160ff191683800117855561039d565b8280016001018555821561039d579182015b8281111561039d578251825591602001919060010190610382565b506103a99291506103ad565b5090565b5b808211156103a957600081556001016103ae565b600082601f8301126103d357600080fd5b813567ffffffffffffffff808211156103ee576103ee6105c8565b604051601f8301601f19908116603f01168101908282118183101715610416576104166105c8565b8160405283815286602085880101111561042f57600080fd5b836020870160208301376000602085830101528094505050505092915050565b6000806040838503121561046257600080fd5b823567ffffffffffffffff8082111561047a57600080fd5b610486868387016103c2565b9350602085013591508082111561049c57600080fd5b506104a9858286016103c2565b9150509250929050565b6000602082840312156104c557600080fd5b5035919050565b6000815180845260005b818110156104f2576020818501810151868301820152016104d6565b81811115610504576000602083870101525b50601f01601f19169290920160200192915050565b85815260a06020820152600061053260a08301876104cc565b828103604084015261054481876104cc565b606084019590955250506001600160a01b03919091166080909101529392505050565b6000821982111561058857634e487b7160e01b600052601160045260246000fd5b500190565b600181811c908216806105a157607f821691505b602082108114156105c257634e487b7160e01b600052602260045260246000fd5b50919050565b634e487b7160e01b600052604160045260246000fdfea2646970667358221220357aaddfe944b615b2215eaf0bfb6c52cab8c9e2f7c53097dfb990b5e7f01e4c64736f6c63430008070033",
  "linkReferences": {},
  "deployedLinkReferences": {}
}